:100000000C9463000C948B000C948B000C948B006C
:100010000C948B000C948B000C948B000C94350A80
:100020000C948B000C948B000C948B000C948B0024
:100030000C948B000C948B000C948B000C948B0014
:100040000C94E90A0C948B000C94B70A0C94910A56
:100050000C948B000C948B000C948B000C948B00F4
:100060000C94330B0C948B0000000000240027003C
:100070002A000000000023002600290000000008DC
:10008000000201000003040700000000000000005F
:10009000010204081020408001020408102001021F
:1000A0000408102000000000250028002B00040494
:1000B0000404040404040202020202020303030310
:1000C00003030200520C11241FBECFEFD8E0DEBFA5
:1000D000CDBF11E0A0E0B1E0E8EDFEE102C0059087
:1000E0000D92A037B107D9F723E0A0E7B1E001C036
:1000F0001D92A931B207E1F710E0C3E6D0E004C0D9
:100100002197FE010E945F0FC236D107C9F70E94F6
:10011000D30C0C946A0F0C9400002091420281E0F1
:10012000213208F044C080911E028111FCCF8091E1
:10013000410292E090931E0291E090931D029FEF86
:1001400090931C0210921B0220931A02A1E2B2E0CB
:10015000EAEFF1E090E0291331C01092F90190919B
:10016000F901880F892B8093F9018091F801813082
:1001700049F51092F8018091F9018093BB008091BC
:10018000BC0083FDF8CF85EC8093BC0080911E02FB
:100190008230E1F380911C028F3FB1F080911C020C
:1001A0008032A1F080911C02803391F084E01092A3
:1001B00020021092420210921F0208953D91319345
:1001C0009F5FC9CF85EEE0CF80E0F1CF82E0EFCF37
:1001D00083E0EDCF91E090931F0280934102109253
:1001E0002002109242020895AF92BF92CF92DF9206
:1001F000EF92FF920F931F93CF93DF936C017B01DC
:100200008B01040F151FEB015E01AE18BF08C0176C
:10021000D10759F06991D601ED91FC910190F081DF
:10022000E02DC6010995892B79F7C501DF91CF91A2
:100230001F910F91FF90EF90DF90CF90BF90AF9004
:100240000895FC01538D448D252F30E0842F90E0DC
:10025000821B930B541710F0CF96089501970895C1
:10026000FC01918D828D981761F0A28DAE0FBF2F8A
:10027000B11D5D968C91928D9F5F9F73928F90E0E0
:1002800008958FEF9FEF0895FC01918D828D98174F
:1002900031F0828DE80FF11D858D90E008958FEF8C
:1002A0009FEF0895FC01918D228D892F90E0805C55
:1002B0009F4F821B91098F739927089583E492E0E1
:1002C0000E94520121E0892B09F420E0822F089539
:1002D00080E090E0892B29F00E945E0181110C944E
:1002E00000000895FC01A48DA80FB92FB11DA35AD9
:1002F000BF4F2C91848D90E001968F739927848F46
:10030000A689B7892C93A089B1898C918370806468
:100310008C93938D848D981306C00288F389E02D09
:1003200080818F7D80830895EF92FF920F931F93BA
:10033000CF93DF93EC0181E0888F9B8D8C8D981398
:100340001AC0E889F989808185FF15C09FB7F894A4
:10035000EE89FF896083E889F989808183708064F0
:1003600080839FBF81E090E0DF91CF911F910F913B
:10037000FF90EF900895F62E0B8D10E00F5F1F4F4A
:100380000F731127E02E8C8D8E110CC00FB607FC59
:10039000FACFE889F989808185FFF5CFCE010E94E7
:1003A0007201F1CFEB8DEC0FFD2FF11DE35AFF4FE2
:1003B000F0829FB7F8940B8FEA89FB898081806275
:1003C000CFCFCF93DF93EC01888D8823B9F0AA8932
:1003D000BB89E889F9898C9185FD03C0808186FD00
:1003E0000DC00FB607FCF7CF8C9185FFF2CF80814F
:1003F00085FFEDCFCE010E947201E9CFDF91CF9151
:100400000895833081F028F4813099F08230A9F08A
:1004100008958730A9F08830C9F08430B1F4809114
:1004200080008F7D03C0809180008F778093800053
:10043000089584B58F7784BD089584B58F7DFBCFF3
:100440008091B0008F778093B00008958091B000C4
:100450008F7DF9CFCF93DF93282F30E0F901E45857
:10046000FF4F8491F901E057FF4FD491F901E25514
:10047000FF4FC491CC23A1F081110E940102EC2F07
:10048000F0E0EE0FFF1FEE58FF4FA591B491EC91F5
:10049000ED2381E090E009F480E0DF91CF910895B1
:1004A00080E090E0FACF1F93CF93DF93282F30E0C6
:1004B000F901E458FF4F8491F901E057FF4FD491BF
:1004C000F901E255FF4FC491CC23A9F0162F8111F9
:1004D0000E940102EC2FF0E0EE0FFF1FEC55FF4FE2
:1004E000A591B4918FB7F894EC91111108C0D095F3
:1004F000DE23DC938FBFDF91CF911F910895DE2B18
:10050000F8CF9091000189130BC0E2ECF0E0E49188
:100510009FEF90930001E13049F028F0E23061F064
:1005200060E00C94530210926E00FACF90916F002D
:100530009D7F90936F00F4CF909170009D7F90937A
:10054000700091E09093B0009091B100987F94601A
:100550009093B1001092B300E3CFCF93DF9390E07C
:10056000FC01E057FF4F249182559F4FFC0184917D
:100570008823C9F090E0880F991FFC01E859FF4FCC
:10058000A591B491FC01EC55FF4FC591D491611137
:100590000DC09FB7F8948C91209582238C9388810D
:1005A000282328839FBFDF91CF910895623051F4B3
:1005B0009FB7F8943C91822F809583238C93E88198
:1005C0002E2BEFCF8FB7F894EC912E2B2C938FBF5F
:1005D000EACFCF9380910001883021F08F3F59F10D
:1005E000CF910895E2ECF0E0C491C7FDF9CF61E04E
:1005F00088E00E94AD02CC2309F48BC0C23009F020
:100600009FC08091B100887F83608093B10089EFA3
:100610008093B3008FEF9FEFDC018093EC01909308
:10062000ED01A093EE01B093EF0180917000826024
:1006300080937000D5CF88E080930001E2ECF0E079
:10064000C491CF3F69F2C13021F150F0C23009F4BA
:100650003EC0C7FDC5CF61E088E00E94AD02CECFAD
:1006600014BC15BC84B5826084BD85B5816085BD30
:10067000E6EBF0E0E491F0E0EE0FFF1FEC55FF4FEA
:1006800085919491E8E9F0E0E491E093EB01C0E01A
:10069000AECF10928000109281008091810088601E
:1006A0008093810080918100816080938100E6EBDE
:1006B000F0E0E491F0E0EE0FFF1FEC55FF4F859165
:1006C0009491E8E9F0E0E491E093EA0190CF109290
:1006D000B0001092B1008091B00082608093B000B1
:1006E0008091B10081608093B100E6EBF0E0E4918D
:1006F000F0E0EE0FFF1FEC55FF4F85919491909322
:10070000E9018093E801E8E9F0E0E491E093E70192
:100710006ECF85B5887F836085BD8CE787BD8FEF01
:100720009FEFDC018093F4019093F501A093F60113
:10073000B093F70180916E00826080936E0050CF7D
:10074000C130E9F480918100887F816080938100CD
:100750008FE39FE190938900809388008FEF9FEF54
:10076000DC018093F0019093F101A093F201B0932A
:10077000F30180916F00826080936F0031CFC230AF
:1007800021F0C1112DCF8FE3C9CF8FE341CF1F934C
:10079000CF93DF93182FEB0161E00E94AD02209709
:1007A00039F460E0812FDF91CF911F910C945302B7
:1007B000E12FF0E0E458FF4FE491E33011F148F409
:1007C000E130B9F0E23069F784B5806284BDC8BD1C
:1007D00014C0E73001F1E83031F1E43011F78091D5
:1007E0008000806280938000D0938B00C0938A0049
:1007F00004C084B5806884BDC7BDDF91CF911F91CF
:10080000089580918000806880938000D093890053
:10081000C0938800F2CF8091B00080688093B000D0
:10082000C093B300EACF8091B00080628093B000A3
:10083000C093B400E2CF3FB7F8948091BD0190918E
:10084000BE01A091BF01B091C00126B5A89B05C013
:100850002F3F19F00196A11DB11D3FBFBA2FA92F3F
:10086000982F8827BC01CD01620F711D811D911D3C
:1008700042E0660F771F881F991F4A95D1F70895A8
:100880008F929F92AF92BF92CF92DF92EF92FF92A0
:100890004B015C010E941B046B017C010E941B0444
:1008A0006C197D098E099F09683E73408105910589
:1008B000A8F321E0821A9108A108B10888EEC80EB9
:1008C00083E0D81EE11CF11C81149104A104B10441
:1008D00029F7FF90EF90DF90CF90BF90AF909F905F
:1008E0008F9008958F929F92AF92BF92EF92FF9256
:1008F0001F93CF93DF93EC01162FE881F9810484D5
:10090000F585E02D462F70E060E009957C011150DF
:100910001230D8F419861A8688889988AA88BB88E4
:100920000E941B04688F798F8A8F9B8F8C8E9D8E7F
:10093000AE8EBF8EC701DF91CF911F91FF90EF90D8
:10094000BF90AF909F908F9008958C889D88AE88BF
:10095000BF88E6CFDC0118968C911897681710F0C5
:100960006FEF680F1B969C911B97992391F0179638
:100970002C911797962F211106C061E0690F90E026
:100980006817D8F7F7CF19961C9219971A966C9397
:100990001A97FD01E60FF11D64856068CD010C9486
:1009A00072048F929F92AF92BF92EF92FF920F9339
:1009B0001F93CF93DF93EC01462FE881F9810484E4
:1009C000F585E02D61E070E009957C018C889D88BB
:1009D000AE88BF880E941B04688F798F8A8F9B8F97
:1009E0008C8E9D8EAE8EBF8E01E010E0EF2811F050
:1009F00010E000E08B85882391F089858F5F8987DF
:100A00009F81891760F019868A858F5F8A8798850C
:100A1000891708F01A866A85CE010E94AA04C801C7
:100A2000DF91CF911F910F91FF90EF90BF90AF900A
:100A30009F908F9008958DEF9FEF08958DEF9FEF1A
:100A4000089590E080E0089585ED8093BC0080914A
:100A5000BC0084FDFCCF10921E02089520919301EA
:100A6000260F3327331F21323105ECF420911E026B
:100A7000FC0190E080E0243069F082E00895A091CC
:100A800093012191AC014F585E4FA40FB52FB11DBA
:100A90002C930196861798F380919301680F6093C9
:100AA000930180E0089581E00895089508950895E0
:100AB000E091C6018091C501E81730F4F0E0E953F8
:100AC000FE4F808190E008958FEF9FEF0895909101
:100AD000C6018091C5012FEF3FEF981748F4E92F29
:100AE000F0E0E953FE4F208130E09F5F9093C60114
:100AF000C90108958091C5019091C601891B990B88
:100B00000895CF92DF92EF92FF920F931F93CF93AE
:100B1000DF937C01CB018A0120911F02222389F0FF
:100B2000EB016B01C40ED51ECC15DD0569F0699192
:100B3000D701ED91FC910190F081E02DC70109955D
:100B4000F3CF642F0E942E05C801DF91CF911F9132
:100B50000F91FF90EF90DF90CF900895CF93DF93A8
:100B60001F92CDB7DEB7698320911F022223F9F0CF
:100B700020914202203258F021E030E0FC01338322
:100B8000228390E080E00F90DF91CF9108958091D3
:100B90002002E82FF0E0EF5DFD4F998190838F5F99
:100BA000809320028093420281E090E0ECCF61E0EC
:100BB000CE0101960E942E05F7CF682F80EE92E0BD
:100BC0000C94AE050F931F93CF93DF93182FD0E0B3
:100BD000C0E28C2F0E94EA000E948D00082F61E085
:100BE00070E080E090E00E944004011103C01D17F6
:100BF000D1F0DF5FCF5FC83261F7C8E38C2F0E946E
:100C0000EA000E948D00082F61E070E080E090E033
:100C10000E944004011103C01D1729F0DF5FCF5F60
:100C2000C03461F7C0E08C2FDF91CF911F910F91FD
:100C30000895CF93DF93D62FC42F682F880F770B9B
:100C40008AE00E94C7036D2FDD0F770B8BE00E94B7
:100C5000C7036C2FCC0F770B89E0DF91CF910C94F9
:100C6000C703CF93FC01C4A560FF02C086A1C82BB7
:100C700061FF02C087A1C82B62FF02C080A5C82BFC
:100C800063FF02C081A5C82B4130510511F483A137
:100C9000C82B85A18C2B90E00E94DD056C2F80EE87
:100CA00092E0CF910C94AE05CF93DF93EC018AA52F
:100CB000882349F19BA5662311F1913011F58CA78A
:100CC00088A10E94EA0089A19AA1029721F489E0F3
:100CD00090E00E94DD056CA580EE92E00E94AE05DA
:100CE0000E948D0021E030E0811102C030E020E060
:100CF00088279927821B930BDF91CF910895992321
:100D0000F1F21CA6DDCF8DEF9FEFF6CF6FEF8CEEEB
:100D100092E00C9454064F925F926F927F928F9262
:100D20009F92AF92BF92EF92FF921F93CF93DF9368
:100D3000EC0188A1882309F459C089A19AA1892BC3
:100D400009F454C0142F7B014C8C5D8C6E8C7F8C0D
:100D5000888C998CAA8CBB8C8DE2881A9108A1088A
:100D6000B1080E941B04681979098A099B09641556
:100D7000750586059705A8F388A10E94EA0089A158
:100D80009AA1029721F489E090E00E94DD05612F8D
:100D900070E084E0759567958A95E1F7A701CE012B
:100DA0000E94310682E0E816F10431F0612F6F7085
:100DB000A701CE010E9431060E948D0021E030E0A3
:100DC000811102C030E020E088279927821B930B15
:100DD000DF91CF911F91FF90EF90BF90AF909F90C8
:100DE0008F907F906F905F904F9008958CEF9FEF62
:100DF000EFCF089590911E029111FCCF91E0909356
:100E00001E0290931D022FEF20931C0210921B02D2
:100E100010921A029093F9019091F901880F892B91
:100E20008093F9018091F801813021F51092F80149
:100E30008091F9018093BB008091BC0083FDF8CFC5
:100E400085EC8093BC0080911E028130E1F380919B
:100E50001B0291E0811102C090911B02AAEFB1E048
:100E6000E7ECF1E080E0891307C01092C60180939F
:100E7000C501089585EEE5CF2D9121938F5FF3CFC6
:100E80004F925F926F927F928F929F92AF92BF929A
:100E9000EF92FF920F931F93CF93DF93EC011CA56A
:100EA00088A1882309F4E1C089A19AA1009709F4D7
:100EB000DCC0029709F4DCC08CA1882309F4D8C0F7
:100EC0007B014C8C5D8C6E8C7F8C888C998CAA8C71
:100ED000BB8C8DE2881A9108A108B1080E941B04FE
:100EE000681979098A099B096415750586059705AE
:100EF000A8F38EA1182B8FA1182B88A5182B89A5D4
:100F0000182BEA94EF2811F48BA1182B8CA1182B25
:100F100088A10E94EA00612F80EE92E00E94AE0557
:100F20000E948D00882301F10FEF1FEF88A10E941E
:100F3000EA006CA580EE92E00E94AE050E948D0052
:100F4000882311F00FEF1FEFC801DF91CF911F91A0
:100F50000F91FF90EF90BF90AF909F908F907F90F8
:100F60006F905F904F90089588A10E94EA008DA134
:100F7000812B90E00E94DD050E948D008111D4CF6D
:100F800088A190E00E94FA0680EE92E00E94670538
:100F90007C0197FDC9CF88A10E94EA00612F80EEF5
:100FA00092E00E94AE050E948D00082F8111BCCFF7
:100FB0008EA190E08E219F21892B09F000E18FA165
:100FC00090E08E219F21892B09F0006288A590E096
:100FD0008E219F21892B09F0006489A590E08E2144
:100FE0009F21892B09F0006888A10E94EA008DA149
:100FF000812B90E00E94DD050E948D00811194CF2D
:1010000088A190E00E94FA0680EE92E00E946705B7
:101010007C0197FD89CF88A10E94EA00612F80EEB4
:1010200092E00E94AE050E948D0081117DCF8EA1BD
:1010300090E08E219F21892B09F001608FA190E023
:101040008E219F21892B09F0026088A590E08E21D6
:101050009F21892B09F0046089A590E08E219F21B2
:10106000892B09F0086010E061CF0CEF1FEF6CCF07
:101070000DEF1FEF69CF0F931F93CF93DF93EC0119
:101080001092C6011092C5011092200210924202E5
:1010900010921E0281E080931D021092F80161E01F
:1010A00082E10E94530261E083E10E945302809139
:1010B000B9008E7F8093B9008091B9008D7F8093B5
:1010C000B90088E48093B80085E48093BC0085E58E
:1010D00095E0909392018093910186E595E090933D
:1010E00096018093950188A181117EC08091700145
:1010F00091E0980F909370010E94E20588A388A167
:10110000811109C08091700191E0980F9093700156
:101110000E94E20588A318A1112309F46CC089A1DB
:101120009AA1892B09F021C1812F0E94EA0060E079
:1011300080EE92E00E94AE056FEF80EE92E00E949A
:10114000AE050E948D00812F0E94EA0060E080EED3
:1011500092E00E94AE050E948D00812F90E00E94D7
:10116000FA0680EE92E00E9467058F3F910509F034
:1011700049C082E090E09AA389A388A10E94EA0076
:1011800060E080EE92E00E94AE058FEF90E00E945A
:10119000DD050E948D0088A10E94EA0086E090E0B3
:1011A0000E94DD058FEF90E00E94DD050E948D001A
:1011B00088A10E94EA0089E090E00E94DD050E947B
:1011C0008D0088A190E00E94FA0680EE92E00E94D5
:1011D00067058F3709F002C127E036E045E054E0AB
:1011E00063E072E0E1E005C10E94EA000E948D0028
:1011F000882309F484CF8CEF9FEFDF91CF911F916B
:101200000F910895892B29F01AA219A28FEF9FEF51
:10121000F4CF81E090E09AA389A388A10E94EA001C
:101220006FEF80EE92E00E94AE050E948D0088A1D3
:1012300090E00E94FA0680EE92E00E9467058C0121
:1012400088A10E94EA006BEF80EE92E00E94AE055A
:101250000E948D0088A190E00E94FA0680EE92E044
:101260000E9467059801277033272730310509F060
:101270004DC0807F9927803F910509F047C083E0EA
:10128000169507958A95E1F761E00627017043E01E
:1012900057E066E075E0E4E022E0F1E030E081E074
:1012A00090E0DC0101C0AA0F3A95EAF7ABA3DC019C
:1012B00001C0AA0FFA95EAF7ACA3DC0102C0AA0F9D
:1012C000BB1F2A95E2F7ADA39C0101C0220FEA954E
:1012D000EAF72EA39C0101C0220F7A95EAF72FA30B
:1012E0009C0101C0220F6A95EAF728A79C0101C062
:1012F000220F5A95EAF729A701C0880F4A95EAF705
:101300008AA70BA7013081F58CA72FC0C801807771
:1013100099278037910519F08DEF9FEF6ECF88A147
:101320000E94EA006FEE80EE92E00E94AE050E94FD
:101330008D0088A190E00E94FA0680EE92E00E9463
:1013400067058F70992726E034E00F9711F424E0A9
:1013500036E00095001F0027001F47E053E062E0E1
:1013600071E0E0E0F5E09BCF1CA688A10E94EA00B6
:1013700089A19AA1029701F585E090E00E94DD0520
:1013800080E290E00E94DD050E948D0088A10E940D
:10139000EA0060E080EE92E00E94AE0560E080EE40
:1013A00092E00E94AE050E948D0088A10E94EA0092
:1013B00089E090E00E94DD0560E080EE92E00E940E
:1013C000AE050E948D0021E030E0811102C030E0C6
:1013D00020E088279927821B930B0FCF86FF3BC005
:1013E00081FD9ACF21E032E043E054E065E076E011
:1013F000E7E081E090E0DC0102C0AA0FBB1FEA95A4
:10140000E2F7ABA31CA2FC0101C0EE0F7A95EAF74C
:10141000EDA3FC0102C0EE0FFF1F6A95E2F7EEA3F9
:10142000BC0101C0660F5A95EAF76FA3BC0102C068
:10143000660F771F4A95E2F768A7AC0101C0440F19
:101440003A95EAF749A701C0880F2A95EAF78AA7D3
:1014500091E09BA759CF26E033E042E051E060E005
:1014600077E0E4E0C6CF0E94650F1F920F920FB69F
:101470000F9211242F933F934F935F936F937F931A
:101480008F939F93AF93BF93EF93FF938091EC0162
:101490009091ED01A091EE01B091EF01892B8A2B83
:1014A0008B2BD1F19091E701E091E801F091E901F6
:1014B0008081892780838091EC019091ED01A0913A
:1014C000EE01B091EF01181619061A061B069CF4DE
:1014D0008091EC019091ED01A091EE01B091EF01AE
:1014E0000197A109B1098093EC019093ED01A093BC
:1014F000EE01B093EF01FF91EF91BF91AF919F91FA
:101500008F917F916F915F914F913F912F910F90AC
:101510000FBE0F901F901895809100010E948102CC
:10152000EACF1F920F920FB60F9211242F933F9381
:101530004F935F936F937F938F939F93AF93BF93DB
:10154000EF93FF9383E492E00E947201FF91EF9189
:10155000BF91AF919F918F917F916F915F914F91CB
:101560003F912F910F900FBE0F901F9018951F92D3
:101570000F920FB60F9211242F938F939F93EF9397
:10158000FF93E0915302F09154028081E09159025F
:10159000F0915A0282FD1BC0908180915C028F5FA6
:1015A0008F7320915D02821741F0E0915C02F0E0C0
:1015B000ED5BFD4F958F80935C02FF91EF919F91C2
:1015C0008F912F910F900FBE0F901F9018958081D3
:1015D000F4CF1F920F920FB60F9211242F933F93C7
:1015E0008F939F93AF93BF938091B9019091BA016C
:1015F000A091BB01B091BC013091B80123E0230F51
:101600002D3758F50196A11DB11D2093B801809387
:10161000B9019093BA01A093BB01B093BC01809132
:10162000BD019091BE01A091BF01B091C001019692
:10163000A11DB11D8093BD019093BE01A093BF0178
:10164000B093C001BF91AF919F918F913F912F9126
:101650000F900FBE0F901F90189526E8230F02964B
:10166000A11DB11DD2CF1F920F920FB60F92112460
:101670002F933F934F935F936F937F938F939F939A
:10168000AF93BF93EF93FF938091B900887F80362B
:1016900009F44AC0F0F5883209F4A7C018F5803182
:1016A00009F49BC0B8F4882309F4F9C0883009F420
:1016B00094C0FF91EF91BF91AF919F918F917F91D6
:1016C0006F915F914F913F912F910F900FBE0F90AF
:1016D0001F901895883109F488C0803251F78093A3
:1016E0001C0214C0803409F49DC040F48033B9F367
:1016F0008833F9F680931C0285ECB0C0803509F47C
:1017000085C0883509F496C0883499F60E9424056E
:10171000D0CF883909F48CC038F5883729F050F4D7
:10172000883611F0803729F683E080931E021092EC
:10173000B70157C0883809F47BC0803919F0803868
:1017400009F0B7CF8091B701803208F071C0E09105
:10175000B70181E08E0F8093B7018091BB00F0E06C
:10176000E956FE4F80833DC0803B39F0E0F4803A7B
:1017700009F479C0883A09F09CCF84E080931E0276
:101780001092940110929301E0919101F0919201D5
:1017900009958091930181110FC081E0809393019D
:1017A0001092710109C0803C09F4A6CF883C09F46D
:1017B000A3CF883B09F07DCFE091940181E08E0FAB
:1017C00080939401F0E0EF58FE4F80818093BB003E
:1017D000909194018091930129C08091F9018093A7
:1017E000BB0085EC8093BC0064CF90911B0280917C
:1017F0001A02981758F5E0911B0281E08E0F809332
:101800001B02F0E0E650FE4F8081E9CFE0911B0221
:1018100081E08E0F80931B028091BB00F0E0E650C8
:10182000FE4F808390911B0280911A029817C8F294
:1018300085E8D8CFE0911B0281E08E0F80931B02D8
:101840008091BB00F0E0E650FE4F808380911D0246
:1018500081115CCF81E08093F80184EA8093BC0021
:1018600010921E0226CF85EC8093BC0010921E02BF
:101870008091B701803230F4E091B701F0E0E95691
:10188000FE4F10826091B70170E0E0919501F091F8
:10189000960187E991E009951092B7010ACF10925D
:1018A0001C0234CFCF93DF93E3E4F2E01382128281
:1018B00088EE93E0A0E0B0E084839583A683B783AD
:1018C00025E031E03183208325EC30E03587248723
:1018D00024EC30E03787268720EC30E0318B208BFA
:1018E00021EC30E0338B228B22EC30E0358B248BE3
:1018F00026EC30E0378B268B118E128E138E148ED1
:10190000E0EEF2E01382128284839583A683B7838C
:1019100087E191E091838083CCEED2E01B821A8232
:1019200089E291E0998388831F82188680ED97E091
:10193000A0E0B0E0888B998BAA8BBB8B86E290E00D
:10194000A0E0B0E08C8B9D8BAE8BBF8B1C861D8680
:101950001E861F861B860E941B04688F798F8A8FC4
:101960009B8F1C8E1D8E1E8E1F8E8FE391E09983A0
:10197000888381E090E09AA389A380E288A390E124
:101980009BA38CA380E48DA381E08EA382E08FA330
:1019900084E088A788E089A780E88AA71BA61CA600
:1019A000DF91CF910895789484B5826084BD84B529
:1019B000816084BD85B5826085BD85B5816085BD4A
:1019C00080916E00816080936E0010928100809102
:1019D000810082608093810080918100816080938A
:1019E0008100809180008160809380008091B100AF
:1019F00084608093B1008091B00081608093B000DA
:101A000080917A00846080937A0080917A0082606D
:101A100080937A0080917A00816080937A0080912F
:101A20007A00806880937A001092C10060E085E0BF
:101A30000E94AD0262E087E00E94AD0261E088E0B2
:101A40000E94AD020E94E90268EC70E080E090E044
:101A50000E94400488E00E94810261E086E00E94CA
:101A6000AD0260E085E00E94AD0261E086E00E9488
:101A7000530268EE73E080E090E00E9440046AE563
:101A800070E086E00E94C70361E089E00E94AD0239
:101A900061E08AE00E94AD0261E08BE00E94AD024D
:101AA00060E087E00E94AD0261E087E00E9453029F
:101AB000E0915302F091540282E08083E0914F0262
:101AC000F09150021082E0915102F091520280E1B7
:101AD000808310925B02E0915702F091580286E0F9
:101AE0008083E0915502F09156028081806180836D
:101AF000E0915502F0915602808188608083E091E8
:101B00005502F0915602808180688083E0915502F1
:101B1000F091560280818F7D80838091F80281113F
:101B20000CC08091F902811108C08091FA028111E4
:101B300004C08091FB02882321F08091F3028F7E04
:101B400059F01092F80280E48093F90280E18093CA
:101B5000FA0280E58093FB0282E08093F40280E148
:101B60008093F30264E670E080E090E00E9440041D
:101B70001092F0028CEE92E00E943B08892B09F053
:101B800059C08091F402823028F08091F002886080
:101B90008093F00240E362E070E08CEE92E00E94FD
:101BA0008B0665E070E080E090E00E94400440E336
:101BB00062E070E08CEE92E00E948B0661E070E0E3
:101BC00080E090E00E94400440E362E070E08CEE30
:101BD00092E00E948B0661E070E080E090E00E945D
:101BE00040048091F00284FD07C040E262E070E0B2
:101BF0008CEE92E00E948B066091F00260628CEEA7
:101C000092E00E94720484E08093F1026CE08CEE1A
:101C100092E00E94720461E08CEE92E00E947204F5
:101C200082E08093F20266E08CEE92E00E94720401
:101C30000E9486068CE08093B800C3E0D0E00E944A
:101C400086066AEF70E080E090E00E94400460E069
:101C50008CEE92E00E9454066AEF70E080E090E023
:101C60000E944004219759F70E94860661E08CEE9D
:101C700092E00E94720460E08CEE92E00E94AA045E
:101C80004CE050E061E571E08CEE92E00E94F400DF
:101C900061E08CEE92E00E94AA0440E150E06EE523
:101CA00071E08CEE92E00E94F40068EE73E080E058
:101CB00090E00E94400400E010E0EE24E394F12C58
:101CC00085E00E942A02892B09F45FC087E00E9408
:101CD0002A02892B09F459C088E00E94810285E01C
:101CE0000E942A02892B79F48091C1019091C2014E
:101CF00001969093C2018093C10164E670E080E098
:101D000090E00E9440048091C1019091C20100972F
:101D100009F044C06AE570E086E00E94C70387E0EE
:101D20000E942A02892B99F4C091C301D091C40169
:101D300064E670E080E090E00E9440042196C231A9
:101D4000D1050CF037C0D093C401C093C301E0911A
:101D5000C301F091C401E231F10508F05DC0ED541A
:101D6000F14F0C945F0FDF0E040F070F340F360F87
:101D7000380F3B0F3E0F400F440F0C0F480F4B0F17
:101D80004D0F510F530F550F570F0E94E90264E694
:101D900070E080E090E00E944004A1CF019729F418
:101DA00061E086E00E945302BACF1092C201109205
:101DB000C101B5CF1092C4011092C301C8CF40E059
:101DC00060E08FEF0E94190664EF71E080E090E020
:101DD0000E94400440E06FEF80E00E94190664EF2B
:101DE00071E080E090E00E9440044FEF60E080E00E
:101DF0000E94190664EF71E080E090E00E944004C8
:101E0000F092C401E092C30140E060E048C04FEFAF
:101E10006FEF8FEF0E94190683E492E00E94520157
:101E2000892BB1F083E492E00E9430018E3F09F0EB
:101E300040C083E492E00E945201892BD1F383E4F5
:101E400092E00E943001682F8CEE92E00E947204B2
:101E50000115110509F434CF0E945E01882309F4AD
:101E60002FCF0E9400002CCF40E0D2CF4FEFCDCF3C
:101E700040E060E0CECF4FEF6FEF11C04FEFF9CFF2
:101E800040EC60EC80ECC6CF40E860E880E8C2CF70
:101E900040E060E0FBCF40E0F8CF40E060E880E069
:101EA000B9CF40E8F6CF40E8F9CF40E8AECF40E008
:101EB000E3CF682F8CEE92E00E94D104C9CFEE0FE1
:101EC000FF1F0590F491E02D099481E090E0F894D3
:081ED0000C946A0FF894FFCF97
:101ED800FF000000009401F4002101E101520130EB
:101EE80001440100000000AE058105210557057A6F
:101EF800056705580500000000D104F4002105F924
:101F08000621051E05330A1B051B0500000000D12C
:101F180004F4002105F9063B0840078B0654061B0C
:101F2800052020202057656C636F6D6521004D7575
:101F38006C746920436F6E74726F6C6C657200000C
:00000001FF
